:020000040800F2
:1000000048090020F1010008FD590008335100089B
:10001000F9590008810500084B6A0008000000003B
:100020000000000000000000000000006D5D0008FE
:100030000108000800000000155C0008F5630008D6
:100040000B0200080B0200080B0200080B0200085C
:100050000B0200080B0200080B0200080B0200084C
:100060000B0200080B020008030800080B0200083E
:100070000B0200080B0200080B0200080B0200082C
:100080000B0200080B020008FD0300080B02000829
:100090000B0200089D0900080B0200080B02000873
:1000A0000B0200080B0200080B0200080B020008FC
:1000B0000B0200080B0200080B0200080B020008EC
:1000C0000B0200080B0200080B0200080B020008DC
:1000D0000B0200080B0200080B0200080B020008CC
:1000E0000B0200080B0200080B0200080B020008BC
:1000F0000B0200080B0200080B0200080B020008AC
:100100000B0200080B0200080B0200080B0200089B
:100110000B0200080B0200087564000885640008E3
:100120000B0200080B0200080B0200080B0200087B
:100130000B0200080B0200080B0200080B0200086B
:100140000B0200080B0200080B0200080B0200085B
:100150000B0200080B0200080B0200080B0200084B
:100160000B0200080B0200080B0200080B0200083B
:100170000B0200080B0200080B0200080B0200082B
:100180000B0200080B0200080B0200080B0200081B
:100190000B020008000000000B0200080B02000820
:1001A0000B0200080B0200080B0200080B020008FB
:1001B0000B0200080B0200080B0200080B020008EB
:1001C0000B0200080B0200080B0200080B020008DB
:1001D0000B0200080B020008DFF810D000F03EF818
:1001E000004800475D6C0008AFF30080480900201C
:1001F0000648804706480047FEE7FEE7FEE7FEE7C1
:10020000FEE7FEE7FEE7FEE7FEE7FEE761640008C3
:10021000D901000840EA01039B0703D009E008C99F
:10022000121F08C0042AFAD203E011F8013B00F8BB
:10023000013B521EF9D27047D2B201E000F8012B07
:10024000491EFBD270470022F6E710B513460A4656
:1002500004461946FFF7F0FF204610BD064C074D37
:1002600006E0E06840F0010394E807009847103486
:10027000AC42F6D3FFF7B4FFDC760008FC7600084A
:1002800070B58C1810F8015B15F0070301D110F858
:10029000013B2A1106D110F8012B03E010F8016B85
:1002A00001F8016B5B1EF9D12B0705D40023521E08
:1002B0000DD401F8013BFAE710F8013BCB1A921C70
:1002C00003E013F8015B01F8015B521EF9D5A1426E
:1002D000D8D3002070BD000080B59FED441A9FED7B
:1002E000443A20EE011AB0EEC11ABDEEC12AB8EEB2
:1002F000C22A31EE421A21EE031ABDEEC12A12EED5
:10030000102A02F1800E6FF35F2246F6D86CC0F619
:10031000000C02EE102A6FF35F2E0CEB8203B8EE96
:10032000422A0CEB8E0231EE421A92ED002A92ED37
:10033000013A93ED004A93ED015A9FED2E7A33EE88
:10034000426A74EE050A20EE877A76EE060A74EEAB
:10035000041ADFED292A37EE607AF0EE080A75EE0E
:10036000211A26EE206A61EEA21A21EE077A36EEF5
:10037000216A36EE076A21EE066A24EE227A36EE0C
:10038000476A21EE066A32EE066A81ED006A35EEB2
:10039000445A32EE036A26EE226A35EE057A36EECC
:1003A000476A32EE027A33EE073A25EE205A23EE00
:1003B000223A21EE066A35EE433A33EE063A21EE52
:1003C000033A22EE222A32EE032A21EE021A34EEFA
:1003D000011AB5EE400AB1EE412AF1EE10FAB8BFAB
:1003E000B0EE421A80ED001A80BD00BF610B363BB3
:1003F00000000044DB0F49BCDB0F493C10B502484C
:1004000001F002FD10BD00000C02002070B5044692
:10041000206804F0B1FF0646206804F0B2FF98B3EC
:1004200096BB2068806800F00D0001280AD1206882
:1004300081681A4A1140891C816000BF032021682D
:10044000086009E0E06D40F01000E065206E40F0CB
:1004500001002066012070BD02F030FF054614E067
:1004600002F02CFF401B02280FD92068806800F0A2
:10047000010050B1E06D40F01000E065206E40F0EA
:10048000010020660120E6E705E02068806800F0B2
:1004900001000028E4D10020DDE70000C0FFFF7F5D
:1004A00038B5044600200090206804F06AFF002858
:1004B00058D1206880682C49084048B1E06D40F070
:1004C0001000E065206E40F001002066012038BD7C
:1004D000206804F009FF2168B1F1A04F03D0234A3E
:1004E0002168914201D1224900E02249084604F0E6
:1004F00003FF00F4000080B11F4800681F49B0FBF3
:10050000F1F0401C00EB40008000009002E00098F9
:10051000401E009000980028F9D102F0CFFE054659
:100520001AE0206804F02DFF10B9206804F0DCFE0A
:1005300002F0C4FE401B02280ED92068006800F0BB
:10054000010048B9E06D40F01000E065206E40F019
:10055000010020660120BAE72068006800F0010071
:100560000028DED00020B2E73F00008000010050EC
:100570000003005000070050F4000020400D03006D
:1005800000BFFEE790ED000A80ED030A90ED000A3F
:10059000DFED060A20EE200AD0ED010A9FED041AD5
:1005A00001EE200A80ED040A704700003ACD133FA7
:1005B0003ACD933F91ED002AD0ED052A32EE622A22
:1005C00081ED022A91ED012AD0ED062A32EE622A4F
:1005D00081ED032A91ED062AD1ED022A32EE222A7C
:1005E00081ED062A91ED072AD1ED032A32EE222A67
:1005F00081ED072A91ED062ADFED5B2AB4EEE22AAF
:10060000F1EE10FA03DD9FED582A81ED062A91EDF7
:10061000062ADFED562AB4EEE22AF1EE10FA03D2F2
:100620009FED522A81ED062A91ED072ADFED4E2A31
:10063000B4EEE22AF1EE10FA03DD9FED4B2A81EDD4
:10064000072A91ED072ADFED492AB4EEE22AF1EEFE
:1006500010FA03D29FED452A81ED072A91ED052A74
:10066000D1ED022A22EE222AD1ED042A91ED063A9A
:1006700002EE832A80ED072A91ED052AD1ED032AA7
:1006800022EE222AD1ED042A91ED073A02EE832AC6
:1006900080ED082A9FED360ADFED360A364A92EDE4
:1006A000002AB1EE422ADFED352A22EE222A22EE7E
:1006B000002AD0ED062A22EE221A92ED002ADFED62
:1006C0002F2A22EE222A22EE002AD0ED052A22EE3F
:1006D000222AD2ED002A9FED293A62EE832AF0EE1B
:1006E000421A42EEA01A90ED072A32EE012A80ED5E
:1006F000072A90ED082A32EE212A80ED082A90ED93
:10070000072AF2EE042AB4EEE22AF1EE10FA03DD33
:10071000B2EE042A80ED072A90ED072AFAEE042AA9
:10072000B4EEE22AF1EE10FA03D2BAEE042A80ED1A
:10073000072A90ED082ADFED122AB4EEE22AF1EE44
:1007400010FA03DD9FED0E2A80ED082A90ED082AAD
:10075000DFED0C2AB4EEE22AF1EE10FA03D29FED9F
:10076000092A80ED082A704700007042000070C21C
:1007700068E89F39ACC5A73B4C0000204F77D63EB8
:10078000CDCC5C41CDCC5CC10748006840F08070A6
:10079000054908600020054948600846006840F0A7
:1007A0000100086070470000FCED00E0001000E070
:1007B00000B9704702494968016000BFF9E70000CD
:1007C000001000E000B970470A4A516802688A1AAE
:1007D000426090ED010AB8EE400ADFED070A20EE14
:1007E000200ADFED060A80EE201A80ED021A00BF13
:1007F000E9E70000001000E000247449B083054DD3
:10080000704710B5102002F04DFC10BD10B52DED55
:10081000028BB6EE000AB0EE408A00240CE09FED99
:10082000101ADFED0F0AB0EE480A0E4806F00FF975
:10083000012001F0EDFF641CB4F5FA7FEFDB0A48FC
:100840000068406A094948809FED051ADFED040AF7
:100850009FED030A034806F0FAF8BDEC028B10BDC9
:10086000000000000C0400202803002034050020B4
:10087000184A1268526A91B2174A9289881A10F57A
:10088000FA6F02DA00F57A6004E0B0F5FA6F01DD84
:10089000A0F57A60104A918100EE900AF8EEE00A25
:1008A000B2EE0E1A20EE810AD2ED040A9FED0B1A69
:1008B00060EE810A9FED0A1A40EE010AC2ED040AB9
:1008C000D2ED040AFDEEE00A10EE902A12B2024BBD
:1008D000DA81704728030020340500209A99193FD7
:1008E000CDCCCC3E10B500200A49088048809FED51
:1008F0000A0A084680ED010A9FED070A80ED020A08
:100900000020C8810549096848623C21034804F079
:100910006DF810BD34050020000000002803002001
:1009200010B519480068406A1849088008460088D0
:100930004988441A00BF01E0A4F57A64B4F57A6FDF
:10094000FADA01E004F57A64002CFBDB00EE104AD1
:10095000B8EEC00ADFED0E0A20EE200A0B4880ED4B
:10096000010A90ED010AF1EE000A20EE200A80ED66
:10097000020AD0ED020AB0EE600A05F041F8034821
:1009800080ED020A10BD000028030020340500207D
:100990002DE3CD3A72B600BFFEE7000010B5024865
:1009A00002F0E3F810BD00007802002010B51D4AE7
:1009B0001D4C0368A34201D102F554721B4C03681D
:1009C000A34201D102F5D46202640368D3F88030F7
:1009D00023F4F814838E44EA03430468C4F8803097
:1009E00002F1700343640368D3F8803023F070642D
:1009F00090F8383044EA03630468C4F8803002F1A8
:100A0000B0038364D833C364D833036518334365B4
:100A1000114602E000230B60091D02F55473994250
:100A2000F8D310BD00A4004000680040006C0040F6
:100A30000146082901D8C8B270470820FCE7000029
:100A4000F8B504460D460020009000BF94F8580009
:100A5000012801D10220F8BD012084F8580000BF10
:100A60002046FFF7D3FC06468EBBE06D20F488508D
:100A700040F00200E065206881681B4A114005F0E3
:100A8000804242F000421143816000BF13E00098B1
:100A9000401C00901549009888420CD3E06D20F06E
:100AA000020040F01000E06500BF002084F858000C
:100AB00000BF0120CFE720688168C90F0029E6D177
:100AC000E06D20F0020040F00100E06504E0FFE787
:100AD000E06D40F01000E06500BF002084F8580091
:100AE00000BF3046B7E70000C0FFFF3F02DE040052
:100AF000704700002DE9FC5F05460C460020019080
:100B000000900027686900B100BFFE49E068884294
:100B100000D000E000BF00BF95F85800012802D1C6
:100B20000220BDE8FC9F012085F8580000BF6869DD
:100B300010B1206A01281ED1606809284ED1A06A30
:100B400060B194F8280000F07C002168C1F3846152
:100B500040EA4120E16A40EA010703E02068C0F36F
:100B6000846047022868C06CE74908403843296818
:100B7000C8646F6632E0A86E90B9216AA966002049
:100B80006866A06A50B1206A401E94F8281001F0EF
:100B90007C010843E16A40EA010701E0206A471E40
:100BA000207900F01F010020884087432068C0F3AF
:100BB0008460217901F01F0188400743A86E401E20
:100BC000A866686E38436866A86E38B92868C06C35
:100BD000CD490840696E08432968C864286804F054
:100BE000BBFBD8B994F8250070B994F826004005ED
:100BF00094F8241040EA01502968C96821F4401192
:100C000008432968C86009E02868C06820F44010DB
:100C100094F8261040EA41502968C860286804F01A
:100C2000C4FB8246286804F097FB8146BAF1000FA6
:100C30007ED1B9F1000FFBD1A06A08B1E06A88B992
:100C400094F82500012806D12868C06840F000709B
:100C50002968C86017E02868C06820F0007029681B
:100C6000C86010E094F82500012806D1E86D40F036
:100C70002000E8650120019005E02868C06820F0A8
:100C800000702968C86094F8300001280CD1606BAE
:100C900040F00200A16B08432968096921F4FF7143
:100CA00008432968086105E02868006920F002000F
:100CB00029680861A068B0F1004F0AD121680022BC
:100CC000286804F09DFB4FF00041286804F0D4FB35
:100CD00008E0A2682168286804F092FB00212868D7
:100CE00004F0CAFB60692968C968C1F3C101490001
:100CF00000FA01F82069042840D028682268216998
:100D000000F1600C0CEB8103D3F800C0DFF8FCB1FC
:100D10000CEA0B0C02F0F84B4BF0004B4BEA080BC3
:100D20004CEA0B0CC3F800C000BF2868A26900E0C1
:100D3000CCE0216900F1600C0CEB8103D3F800C01A
:100D40002CF0807C4CEA020CC3F800C000BF28687D
:100D5000227F2169012A01D1520600E000221346B8
:100D600000F1600C0CEB8102D2F800C02CF0007C8A
:100D70004CEA030CC2F800C000BFA7E000212868BD
:100D800004F0D7FAC0F3120030B90021286804F04B
:100D9000D0FAC0F3846007E00021286804F0C9FAA3
:100DA00090FAA0F0B0FA80F02168C1F3120119B9ED
:100DB0002168C1F3846104E0216891FAA1F1B1FADC
:100DC00081F1884204D100221146286804F043FBD7
:100DD0000121286804F0ADFAC0F3120030B90121F6
:100DE000286804F0A6FAC0F3846007E001212868AF
:100DF00004F09FFA90FAA0F0B0FA80F02168C1F3F5
:100E0000120119B92168C1F3846104E0216891FAE3
:100E1000A1F1B1FA81F1884204D1002201212868B0
:100E200004F019FB0221286804F083FAC0F31200D1
:100E300030B90221286804F07CFAC0F3846007E02E
:100E40000221286804F075FA90FAA0F0B0FA80F058
:100E50002168C1F3120119B92168C1F3846104E06A
:100E6000216891FAA1F1B1FA81F1884204D10022FE
:100E70000221286804F0EFFA0321286804F059FAE7
:100E8000C0F3120030B90321286804F052FAC0F30D
:100E9000846007E00321286804F04BFA90FAA0F080
:100EA000B0FA80F02168C1F3120119B92168C1F3C9
:100EB000846104E0216891FAA1F1B1FA81F18842DC
:100EC00004D100220321286804F0C5FA286804F040
:100ED0005DFA002873D12868E2682168D0F8B03044
:100EE000C1F3120C23EA0C0302F0180BDFF820C048
:100EF0002CFA0BFC0CEA010C43EA0C03C0F8B030EE
:100F000000BF07E000007F400040100400F0FF0336
:100F1000FFFF07009249E068884250D12368C3F37D
:100F200012031BB92368C3F3846304E0236893FAB4
:100F3000A3F3B3FA83F35B1C03F01F03092B3FD821
:100F40002368C3F312031BB92368C3F3846304E06B
:100F5000236893FAA3F3B3FA83F35B1C03F01F0334
:100F60004FF0010C0CFA03FC2368C3F312031BB906
:100F70002368C3F3846304E0236893FAA3F3B3FA0A
:100F800083F35B1C03F01F034CEA836C2368C3F3F9
:100F900012031BB92368C3F3846304E0236893FA44
:100FA000A3F3B3FA83F35B1C03F01F0303EB4303C8
:100FB0004FF0000B4BEA03534CEA03033FE043E0DE
:100FC0002368C3F312031BB92368C3F3846304E0EB
:100FD000236893FAA3F3B3FA83F35B1C03F01F03B4
:100FE0004FF0010C0CFA03FC2368C3F312031BB986
:100FF0002368C3F3846304E0236893FAA3F3B3FA8A
:1010000083F35B1C03F01F034CEA836C2368C3F378
:1010100012031BB92368C3F3846304E0236893FAC3
:10102000A3F3B3FA83F35B1C03F01F030A3B03EB48
:1010300043034FF0007B4BEA03534CEA030319468A
:10104000A268286804F0DCF94649206808400028B6
:101050007FD02968B1F1A04F03D0434A296891425B
:1010600001D1424900E042490846816801F0E0763A
:1010700000BF40492068884203D03F492068884229
:101080002CD106F4000048BB2868B0F1A04F03D073
:101090003A49286888425CD12A68B2F1A04F03D04F
:1010A000314B2A689A4201D1304A00E0304A10465A
:1010B00046F4000104F0BEF9314800683149B0FB44
:1010C000F1F0801C00EB40008000009002E00098EE
:1010D000401E009000980028F9D13AE02A49206883
:1010E00088421BD106F08070C0B91F492868884229
:1010F00003D12649286888422BD02A68B2F1A04F34
:1011000003D0194B2A689A4201D1184A00E0184AC4
:10111000104646F0807104F08DF91AE01C492068F1
:10112000884216D106F4800098B90F492868884291
:101130000FD02A68B2F1A04F03D00B462A689A421A
:1011400001D10A4A00E00A4A104646F4800104F040
:1011500071F900BF002085F8580000BF0198E0E455
:1011600000007F4000000880000100500003005094
:1011700000070050000021C31000C090000600507E
:10118000F4000020400D0300000052C7000500508D
:10119000000084CB70B52DED028B0546C048FFF7EB
:1011A00007FBC04885424BD1BF480078002848D192
:1011B000BE480078401CBD490870BA480068D0F8A5
:1011C0008000BB490880B7480068D0F88400B9495E
:1011D0000880B4480068D0F88800B7490880B7484C
:1011E0000068B34909880844B4490860B4480068F5
:1011F000B04909880844B2490860B2480068AE495D
:1012000009880844AF490860A84800780A285ADBD2
:10121000AA4800680A21B0FBF1F0A8490860A84874
:1012200000680A21B0FBF1F0A5490860A5480068F4
:101230000A21B0FBF1F0A349086001209A49087027
:1012400041E098480068D0F88000994908809548A6
:101250000068D0F884009749088092480068D0F868
:101260008800954908809248008894490968401A86
:1012700000EE100AB8EEC00ADFED930A20EE200A55
:10128000924880ED000A8B4800888D490968401A11
:1012900000EE100AB8EEC00ADFED8B0A20EE200A3D
:1012A0008B4880ED000A8448008886490968401A06
:1012B00000EE100AB8EEC00ADFED830A20EE200A25
:1012C000844880ED000A8448007800287ED0FFF72B
:1012D00027FB824800888249A1F852007F4890EDA0
:1012E000020A804880ED000A7F480068401C7E4961
:1012F0000860084600680A2866D3002008607B481A
:10130000B0F90000002807DB7948B0F90000774900
:10131000B1F9001088420CDA7448B0F900000028D6
:101320000BDC7348B0F900007049B1F90010884235
:1013300003DC7048B0F9004002E06F48B0F90040AB
:101340006A48B0F900006A49B1F90010884213DA1E
:1013500066480088204400B2644908800846B0F915
:1013600000006349B1F90010884220DD6048B0F9FF
:1013700000005E4908801AE05C48B0F900005C4952
:10138000B1F90010884212DD58480088001B00B2F5
:10139000564908800846B0F900005549B1F90010D7
:1013A000884204DA5248B0F9000050490880534A94
:1013B0004E48B0F9000000EE100AB8EEC00A5049DD
:1013C000474804F0D5FC00BF4C4800E019E090ED20
:1013D000008A4C48D0ED008A4248D0ED002AB0EE99
:1013E000682AF0EE481A3B4890ED001A3848D0EDD4
:1013F000000A364890ED000A4349394803F09BFE45
:1014000000BF374890ED042AF0EE421A90ED032A0F
:10141000B0EE421A90ED0A2AF0EE420A90ED092A47
:10142000B0EE420A39493A4804F02AFC394880EDC6
:10143000000A1B48FFF7C6F9294890ED070A36480D
:1014400080ED000A264890ED080A344880ED000A35
:10145000234890ED090A324880ED000A204890EDBB
:101460000A0A304880ED000A1D4890ED050A2E4812
:1014700080ED000A1A4890ED060A2C4880ED000A1B
:10148000174890ED030A2A4880ED000A144890EDB1
:10149000040A284880ED000ABDEC028B70BD0000F4
:1014A000000200200C02002038000020C4000020B0
:1014B0000A0000200C0000200E0000201000002078
:1014C00014000020180000200000DC3B2C0000204D
:1014D00030000020340000203900002034050020B6
:1014E0000C04002048000020C800002096000020C6
:1014F00088000020980000209A0000208000002032
:10150000A804002084000020600400204401002082
:101510000C010020580000209C000020A0000020AA
:10152000A4000020A8000020AC000020B000002093
:10153000B4000020B8000020704700002DE9F04101
:1015400004462168B1F1A04F03D05B4A2168914263
:1015500001D15A4900E05A49084603F0DCFE05462D
:10156000206803F0F9FE10B10220BDE8F081206888
:10157000C06800F000472068C06C00F4C07030B94B
:101580002FB9E06D40F02000E0650120EDE700BFDD
:1015900094F85800012801D10220E6E7012084F8E0
:1015A000580000BF2046FEF77BFF0646002E7CD188
:1015B000E06D00F4807020B1206E20F008002066FD
:1015C00001E000202066E06D42F20101884340F412
:1015D0008050E06538492068884202D14FF0A04031
:1015E00006E038492068884201D1374800E0206889
:1015F0002168884200D01DB9E06D20F48010E065BC
:1016000060202168086000BF002084F8580000BFF7
:101610002068C06800F4001028B12068406840F4D9
:10162000806021684860A06908280CD12068406863
:1016300020F02000216848602068406840F04000A9
:10164000216848600CE02068406820F04000216874
:1016500048602068406840F020002168486000BF72
:1016600000BF15492068884202D14FF0A04006E033
:1016700014492068884201D1134800E0206821689D
:10168000884204D01DB1062D01D0072D08D1206855
:1016900003F058FE70B9206803F064FE0AE004E02D
:1016A000E06D40F48010E06504E000BF002084F8A5
:1016B000580000BF304658E70001005000030050BA
:1016C00000070050000500500004005070477047AC
:1016D0002DE9F0439BB004460E464FF000083068F9
:1016E00000B100BF00BF94F85800012803D10220C8
:1016F0001BB0BDE8F083012084F8580000BF002033
:10170000179018902068B0F1A04F02D1584800906F
:1017100008E058492068884202D15748009001E00B
:1017200000200090009850B9E06D40F02000E06586
:1017300000BF002084F8580000BF0120D8E70098BF
:1017400003F033FE0746206803F02FFE00287DD10A
:10175000002F7FD12068B0F1A04F03D0444920680A
:10176000884201D1454800E0454805463068D8B375
:1017700094F83800716841EA4030A96821F460416A
:101780000843A8602068B0F1A04F03D03849206812
:10179000884201D1394800E03948384988420AD1A5
:1017A0004FF0A04003F0F2FD8146314803F0EEFD1A
:1017B00049EA00000DE02F4803F0E8FD81462E487D
:1017C00003F0E4FD49EA00092E4803F0DFFD49EA91
:1017D0000000E0BBB16830680843A96840F61F729A
:1017E00091430843A8603BE0FFE7A86820F460400D
:1017F000A8602068B0F1A04F03D01D49206888423E
:1018000001D11E4800E01E481C4988420AD14FF011
:10181000A04003F0BBFD8146154803F0B7FD49EA3F
:1018200000000DE0134803F0B1FD8146124803F0BB
:10183000ADFD49EA0009134803F0A8FD49EA00009C
:1018400028B9A86840F61F71884301E002E007E06C
:10185000A86005E0E06D40F02000E0654FF0010871
:1018600000BF002084F8580000BF404640E7000059
:10187000000100500004005000050050000300501B
:1018800000070050000600502DE9F84F05460C46B1
:101890004FF0000A00200090FE49E068884200D026
:1018A00000E000BF00BF95F85800012802D10220D7
:1018B000BDE8F88F012085F8580000BF286803F0C4
:1018C0006FFD00287DD12968D4E9002001F1300C9A
:1018D000C0F3012B0CEB8B03D3F800C000F01F0EFC
:1018E0004FF01F0B0BFA0EFB2CEA0B0C00F01F0B3A
:1018F000C2F3846E0EFA0BFE4CEA0E0CC3F800C065
:1019000000BF286803F04CFD8146286803F01FFDE6
:101910008046B9F1000F64D1B8F1000FFBD1A06887
:10192000B0F1004F0AD121680022286803F054FD6D
:101930004FF00041286803F099FD08E0A268216893
:10194000286803F049FD0021286803F08FFD6069D5
:101950002968C968C1F3C101490000FA01F720698B
:1019600004283FD028682268216900F1600C0CEB44
:101970008103D3F800C0DFF820B30CEA0B0C02F0AF
:10198000F84B4BF0004B4BEA070B4CEA0B0CC3F83F
:1019900000C000BF2868A269216900F1600C0CEB4F
:1019A0008103D3F800C02CF0807C4CEA020CC3F811
:1019B00000C000BF2868227F2169012A02D1520697
:1019C00001E0F6E10022134600F1600C0CEB81020D
:1019D000D2F800C02CF0007C4CEA030CC2F800C026
:1019E00000BFA7E00021286803F09AFCC0F31200B2
:1019F00030B90021286803F093FCC0F3846007E04D
:101A00000021286803F08CFC90FAA0F0B0FA80F076
:101A10002168C1F3120119B92168C1F3846104E09E
:101A2000216891FAA1F1B1FA81F1884204D1002232
:101A30001146286803F004FD0121286803F070FCBA
:101A4000C0F3120030B90121286803F069FCC0F32B
:101A5000846007E00121286803F062FC90FAA0F09E
:101A6000B0FA80F02168C1F3120119B92168C1F3FD
:101A7000846104E0216891FAA1F1B1FA81F1884210
:101A800004D100220121286803F0DAFC0221286831
:101A900003F046FCC0F3120030B90221286803F0BD
:101AA0003FFCC0F3846007E00221286803F038FCA3
:101AB00090FAA0F0B0FA80F02168C1F3120119B9D0
:101AC0002168C1F3846104E0216891FAA1F1B1FABF
:101AD00081F1884204D100220221286803F0B0FC81
:101AE0000321286803F01CFCC0F3120030B9032165
:101AF000286803F015FCC0F3846007E00321286820
:101B000003F00EFC90FAA0F0B0FA80F02168C1F367
:101B1000120119B92168C1F3846104E0216891FAC6
:101B2000A1F1B1FA81F1884204D100220321286891
:101B300003F086FC286803F024FC002870D1286894
:101B4000E2682168D0F8B0C0C1F312032CEA030C9C
:101B500002F0180B514B23FA0BF30B404CEA030C29
:101B6000C0F8B0C000BF4B49E068884258D1236834
:101B7000C3F312031BB92368C3F3846304E023682F
:101B800093FAA3F3B3FA83F35B1C03F01F03092B4F
:101B90003ED82368C3F312031BB92368C3F38463DD
:101BA00004E0236893FAA3F3B3FA83F35B1C03F016
:101BB0001F034FF0010C0CFA03FC2368C3F312035C
:101BC0001BB92368C3F3846304E0236893FAA3F387
:101BD000B3FA83F35B1C03F01F034CEA836C2368A6
:101BE000C3F312031BB92368C3F3846304E02368BF
:101BF00093FAA3F3B3FA83F35B1C03F01F0303EB25
:101C000043034FF0000B4BEA03534CEA03033FE05E
:101C10002368C3F3120323B92368C3F3846305E085
:101C200042E0236893FAA3F3B3FA83F35B1C03F057
:101C30001F034FF0010C0CFA03FC2368C3F31203DB
:101C40001BB92368C3F3846304E0236893FAA3F306
:101C5000B3FA83F35B1C03F01F034CEA836C236825
:101C6000C3F312031BB92368C3F3846304E023683E
:101C700093FAA3F3B3FA83F35B1C03F01F030A3B4D
:101C800003EB43034FF0007B4BEA03534CEA03039F
:101C9000194605E000007F4000F0FF03FFFF07004A
:101CA000A268286803F098FB48492068084000288B
:101CB00042D02968B1F1A04F03D0454A296891422A
:101CC00001D1444900E04449084603F015FB0646AB
:101CD00042492068884203D04149206888422CD17B
:101CE00006F4000048BB2868B0F1A04F03D03D497E
:101CF0002868884263D12A68B2F1A04F03D0344BE0
:101D00002A689A4201D1334A00E0334A104646F429
:101D1000000103F089FB344800683449B0FBF1F05E
:101D2000401C00EB40008000009002E00098401E44
:101D3000009000980028F9D141E02D4920688842A0
:101D40001BD106F08070C0B921492868884203D1B0
:101D500028492868884232D02A68B2F1A04F03D0BF
:101D60001B4B2A689A4201D11A4A00E01A4A1046CF
:101D700046F0807103F058FB21E01F49206888423B
:101D80001DD106F48000D0B911492868884216D0C8
:101D90002A68B2F1A04F03D00B462A689A4201D1BB
:101DA0000C4A00E00C4A104646F4800103F03CFB6C
:101DB00005E0E86D40F02000E8654FF0010A00BF43
:101DC000002085F8580000BF504671E500000880EB
:101DD000000100500003005000070050000021C324
:101DE0001000C09000060050F4000020400D0300D9
:101DF000000052C700050050000084CB70477047B8
:101E000001460868006C70472DE9F84F0446002031
:101E1000009020680568206846682168B1F1A04FED
:101E200003D0DA4A2168914201D1D94900E0D94969
:101E3000084603F06BFA074605F00200022811D1AC
:101E400006F0020002280DD1E06D00F0100018B974
:101E5000E06D40F40060E0652046FEF749FE022098
:101E60002168086005F00400042803D106F004008E
:101E7000042807D005F0080008286BD106F00800F8
:101E8000082867D1E06D00F0100018B9E06D40F44B
:101E90000070E065206803F08DFA002854D0BB493B
:101EA0002068884202D14FF0A04006E0BA4920687D
:101EB000884201D1B94800E020682168884204D0F6
:101EC0001FB1052F01D0092F03D12068D0F80C8055
:101ED00010E0AE492068884202D14FF0A04006E0F1
:101EE000AD492068884201D1AC4800E020688346B3
:101EF000DBF80C8008F40050B0F5005F24D02068B7
:101F0000006800F0080008281ED1206803F048FA95
:101F100090B92068406820F00C0021684860E06DAE
:101F200020F48070E065E06D00F4805018B9E06D39
:101F300040F00100E06507E0E06D40F01000E06572
:101F4000206E40F0010020662046FFF757FF0C206E
:101F50002168086005F02000202803D106F0200049
:101F6000202807D005F0400040287FD106F040002F
:101F700040287BD1E06D00F0100018B9E06D40F40E
:101F80000050E0652068C16C01F4C07109B90121FD
:101F900000E000218A4600BF206803F00BFA81466A
:101FA0007A492068884202D14FF0A04006E07A4981
:101FB0002068884201D1794800E020682168884281
:101FC00004D01FB1062F01D0072F03D12068D0F80D
:101FD0000C8010E06D492068884202D14FF0A0408B
:101FE00006E06D492068884201D16C4800E0206815
:101FF0008346DBF80C80BAF1000F31D008F0007096
:1020000028B1B9F1000F2BD008F4005040BB206874
:10201000006800F04000402822D108F40010F8B910
:10202000206803F094F998B92068406820F06000B7
:1020300021684860E06D20F48050E065E06D00F4B8
:10204000807068B9E06D40F00100E06508E00DE0E7
:10205000E06D40F01000E065206E40F00100206669
:102060002046FFF797F860202168086005F080009F
:1020700080280DD106F08000802809D1E06D40F461
:102080008030E065204600F0E7F980202168086094
:1020900005F48070B0F5807F0FD106F48070B0F544
:1020A000807F0AD1E06D40F40030E0652046FFF704
:1020B0000DFB4FF480702168086005F40070B0F5E6
:1020C000007F0FD106F40070B0F5007F0AD1E06DFB
:1020D00040F48020E0652046FFF7F9FA4FF40070E5
:1020E0002168086005F01000102833D106F01000B8
:1020F00010282FD1E06B10B90120009019E08FB1AA
:102100002168B1F1A04F03D0204A2168914201D14A
:102110001F4900E01F49084603F0F3F848B10120C9
:10212000009006E02068C06800F0010008B10120BE
:102130000090009801280AD1E06D40F48060E065CD
:10214000206E40F0020020662046FFF758FE102067
:102150002168086005F48060B0F5806F13D106F443
:102160008060B0F5806F0ED1E06D40F48040E06596
:10217000206E40F0080020664FF4806021680860FF
:102180002046FFF7D9F9BDE8F88F000000010050A4
:1021900000030050000700500005005000040050EC
:1021A0002DE9F84304464FF000080020009014B9D0
:1021B0000120BDE8F883606920B194F8240001286B
:1021C00000D100BFE06D30B9204600F047F9002093
:1021D000206684F8580020688168C1F3407131B1ED
:1021E00020688168914A1140816000BF00BF20686B
:1021F00003F0D1F8B0B9206881688D4A114041F0F0
:102200008051816000BF8B4800688B49B0FBF1F0C2
:10221000401C4000009002E00098401E0090009892
:102220000028F9D1206803F0B6F848B9E06D40F015
:102230001000E065206E40F0010020664FF00108BC
:10224000206803F0ADF80646E06D00F010000028AD
:102250007ED1002EFCD1E06D20F4807040F00200B1
:10226000E065206803F08DF888BB2068B0F1A04FCE
:1022700003D072492068884201D1714800E071485A
:102280006F4988420AD14FF0A04003F07AF88146A6
:102290006A4803F076F849EA00000DE06A4803F066
:1022A00070F88146694803F06CF849EA000968480B
:1022B00003F067F849EA000048B92268B2F1A04F7C
:1022C00003D05E4B22689A4202D15D4A01E009E0E8
:1022D0005C4A10466168826822F47C120A4382607C
:1022E00000BF00BF607FE16B41EA4030E168084316
:1022F000A168084394F8241040EA014594F82400AA
:10230000012803D1208D401E45EA4045E06A28B1EE
:10231000A08D00F47870216B084305432068C068E5
:102320004C49084028432168C8602068006920F0B3
:102330004060616B084321680861206803F007F87A
:102340000746EEBBE7BB207F002141EA803100E079
:1023500064E094F8380041EA40052068C06844F21F
:102360000201884328432168C860206980B1206841
:10237000006940F48030216808612068D0F8C0000E
:102380006FF30D00216908432168C1F8C0000DE01A
:102390002068006920F48030216808612068D0F846
:1023A000C0006FF30D002168C1F8C00094F8400030
:1023B000012813D1606C40F00101A06C084300E0DB
:1023C00012E0E16C0843216D08432168096940F27D
:1023D000FC72914308432168086105E020680069A8
:1023E00020F00100216808616069012809D1206896
:1023F000006B20F00F00216A491E08432168086322
:1024000005E02068006B20F00F0021680863E06D94
:1024100020F0020040F00100E06505E0E06D40F0D2
:102420001000E0654FF001084046C2E6C0FFFF5FC4
:10243000C0FFFF7FF4000020400D030000010050AA
:102440000003005000070050000400500005005039
:10245000000600500740F0FF7047000010B59CB028
:102460000446142117A8FDF7EEFE542102A8FDF73B
:10247000EAFE2068B0F1A04F4FD14FF40040029027
:102480008003139002A801F0A7F808B1FEF782FAC2
:1024900000BF2348C06C40F400502149C86408467E
:1024A000C06C00F40050019000BF00BF00BF0846A0
:1024B000C06C40F00400C8640846C06C00F0040022
:1024C000019000BF00BF00BF0846C06C40F0010093
:1024D000C8640846C06C00F00100019000BF00BF56
:1024E0000E201790032018900020199017A90D486E
:1024F00000F0E6FD082017900320189000201990A6
:1025000017A94FF0904000F0DBFD00221146122089
:1025100000F07AFF122000F063FF1CB010BD000035
:1025200000100240000800482DE9F04704460F461D
:102530002168B1F1A04F03D0574A2168914201D1DF
:10254000564900E05649084602F0E0FE0546A069FB
:10255000082801D1082628E01DB1052D01D0092D3C
:102560000DD12068C06800F0010030B1E06D40F08E
:102570002000E0650120BDE8F087042615E0216811
:10258000B1F1A04F03D0444A2168914201D143499F
:1025900000E04349084602F0B4FE28B1E06D40F087
:1025A0002000E0650120E6E7042600F087FE804673
:1025B00017E0781CA8B100F081FEA0EB0800B8423B
:1025C00000D877B920680068304050B9E06D40F01D
:1025D0000400E06500BF002084F8580000BF03201D
:1025E000C9E72068006830400028E2D0E06D40F480
:1025F0000070E065206802F0DDFE98B1607F88B968
:102600002068006800F0080008280BD1E06D20F475
:102610008070E065E06D00F4805018B9E06D40F026
:102620000100E0651C492068884202D14FF0A040BB
:1026300006E01C492068884201D11B4800E0206860
:102640002168884204D01DB1052D01D0092D03D188
:102650002068D0F80C9010E00F492068884202D121
:102660004FF0A04006E00F492068884201D10E4893
:1026700000E020688246DAF80C90082E03D108208A
:102680002168086005E009F4804010B90C20216839
:10269000086000206FE700000001005000030050B8
:1026A0000007005000050050000400502DE9F041E3
:1026B00004462168B1F1A04F03D0504A21689142ED
:1026C00001D14F4900E04F49084602F01FFE054680
:1026D000206802F065FE002873D100BF94F858000E
:1026E000012802D10220BDE8F081012084F85800C1
:1026F00000BF2046FDF7D4FE0646002E76D1E06DE1
:1027000040F60161884340F48070E0653B492068F1
:10271000884202D14FF0A04006E03B492068884241
:1027200001D13A4800E020682168884200D01DB9F4
:10273000E06D20F48010E065E06D00F48050B0F5AD
:10274000805F04D1206E20F00600206601E00020AA
:1027500020661C202168086000BF002084F8580013
:1027600000BF26492068884202D14FF0A04006E011
:1027700025492068884201D1244800E0206821686A
:10278000884204D01DB1052D01D0092D0ED120683D
:10279000C06800F0007028B1E06D20F4005040F4F3
:1027A0008050E065206802F00FFE25E0E06D40F407
:1027B0008010E06511492068884203D14FF0A040A5
:1027C00007E018E010492068884201D10F4800E076
:1027D00020680746F86800F0007068B1E06D20F4EA
:1027E000005040F48050E06506E0FFE700BF0020A5
:1027F00084F8580000E00226304674E700010050DB
:102800000003005000070050000500500004005075
:1028100070B5044600F052FD06462546681C10B10E
:1028200004480068054400BF00F048FD801BA84232
:10283000FAD370BDF000002070B50346144693F83B
:102840005C5001F4C07000B100BF012D01D0022D19
:102850007DD11868826D01F0070010B102F001000F
:1028600018B301F0380010B102F00200E8B101F431
:10287000E07010B102F00400B8B101F4F05010B1F2
:1028800002F0080088B101F4604010B102F01000BD
:1028900058B101F4403010B102F0200028B101F429
:1028A0007C0040B102F0400028B91868C06D40F0CB
:1028B00001001E68F06501F0070010B102F0010090
:1028C00018BB01F0380010B102F00200E8B901F4C1
:1028D000E07010B102F00400B8B901F4F05010B18A
:1028E00002F0080088B901F4604010B102F0100055
:1028F00058B901F4403010B102F0200028B901F4B9
:102900007C0040B102F0400028B11868C06D40F072
:1029100002001E68F06501F0800030B11868D0F840
:10292000DC0020431E68C6F8DC0001F4807030B182
:102930001868D0F8E00020431E68C6F8E000186868
:10294000406D08431E687065002070BDFFE7186E7B
:1029500040F0020018660120F7E7F0B5024692F851
:102960005C60012E01D0022E23D1086880B9087A5C
:1029700080070F7B40EAC7600F8A40EA07404F6933
:1029800040EA0704176C486807EB80031C600EE000
:102990000F7B086940EA47740F7A486940EA8775F7
:1029A000576C486807EBC0031C601B1D1D600020AE
:1029B000F0BD106E40F0020010660120F8E770B51F
:1029C0000446049D94F85C00012810D1080140EAF7
:1029D000820040EA430028432668D6F8806026F04B
:1029E0003F0630432668C6F88000002070BD206E88
:1029F00040F0040020660120F8E77047044A904246
:102A000004D1044A1268521C024B1A60704700003D
:102A100078020020E40000202DE9F04304460E4631
:102A20009C46002394F85C80B8F1020F7DD1402EC3
:102A300025D12068D0F8900000F00F0030B9206E4A
:102A400040F4807020660120BDE8F0832068D0F853
:102A50009000C0F3006030B12068D0F88000C0F36F
:102A6000402000B101232068D0F89000C0F301207D
:102A7000034403EBC309A06C00EBC90123E0206809
:102A8000D0F8980000F00F0028B9206E40F4807054
:102A900020660120D8E72068D0F89800C0F30060D5
:102AA00030B12068D0F88000C0F3002000B10123CD
:102AB0002068D0F89800C0F30120034403EBC30959
:102AC000E06C00EBC901086800F08040506050687D
:102AD00020B90868C0F38A40106003E0086820F05D
:102AE00060401060086800F000509060086800F0D6
:102AF00000401061091D088880B2D0610868C0F3E9
:102B00000340D060086800F480105061086800F449
:102B1000001090610868C0F3066010620868C00F7A
:102B20005062091D0F46002504E015E0785D0CF8A1
:102B300005006D1CDFF82C90D06819F80000A84241
:102B4000F4D8402E03D12068C0F8943002E0206809
:102B5000C0F89C30002077E7206E40F00800206627
:102B6000012071E7B06E000870472DE9FC5F044654
:102B70002068006D00F4E0572068406D0740206831
:102B8000006D00F007082068406D00EA0808206822
:102B9000006D00F038092068406D00EA09092068DE
:102BA000006D00F4710A2068406D00EA0A0A20688E
:102BB000006D00F4602B2068406D00EA0B0B20686C
:102BC000456D2068066DC6F3801040B1C5F38010D6
:102BD00028B14020216808652046FFF7C5FFC6F3ED
:102BE0000020A0B1C5F3002088B12068D0F8D8003B
:102BF00000902068D0F8E0000099084000904FF461
:102C00008070216808652046009900F045FA2FB1D0
:102C1000206807653946204600F040FAB8F1000FF9
:102C200006D02068C0F850804146204600F0D0F918
:102C3000B9F1000F06D02068C0F8509049462046F0
:102C400000F010FAC6F3402048B1C5F3402030B17F
:102C50004FF4007021680865204600F020FAC6F3A2
:102C6000C01098B1C5F3C01080B12068D0F8D4006E
:102C700001902068D0F8DC00019908400190802084
:102C8000216808652046019900F007FAC6F3403034
:102C900048B1C5F3403030B14FF4005021680865A9
:102CA000204600F0F8F9C6F3C03048B1C5F3C03093
:102CB00030B14FF4004021680865204600F0EAF981
:102CC000C6F3803050B1C5F3803038B14FF4804046
:102CD00021680865206E40F080002066BBF1000F7F
:102CE00006D02068C0F850B059462046FFF786FE4F
:102CF000BAF1000F06D02068C0F850A0206E40EA5C
:102D00000A002066206E10B12046FFF776FEBDE86F
:102D1000FC9F000070B504460CB9012070BD8149CC
:102D20002068884200D100BFA068B0F5407F00D184
:102D300000BF94F85C0028B9002084F85D002046AC
:102D400000F0F4F82068806920F0100021688861A4
:102D500000F0B4FA05460DE000F0B0FA401B0A2876
:102D600008D9206E40F001002066032084F85C0042
:102D70000120D3E72068806900F008000828EBD024
:102D80002068806940F001002168886100F096FAAF
:102D900005460DE000F092FA401B0A2808D9206E83
:102DA00040F001002066032084F85C000120B5E7B4
:102DB0002068806900F001000028EBD0206880695D
:102DC00040F002002168886156492068884202D19B
:102DD000554960680860207C012806D12068806918
:102DE00020F040002168886105E02068806940F09B
:102DF000400021688861607C012806D120688069D4
:102E000040F480402168886105E02068806920F4F2
:102E1000804021688861A07C012806D120688069F3
:102E200020F480502168886105E02068806940F4C2
:102E30008050216888612068806920F44070A16812
:102E40000843216888612068806920F0A400216817
:102E500088612068006920F0100021680861E0683E
:102E6000012806D12068806940F00400216888614B
:102E700020E0E068F0B1E068022815D020688069A1
:102E800040F08000216888612068006940F01000EF
:102E900021680861E06803280CD12068806940F04F
:102EA00020002168886105E02068806940F02000EA
:102EB00021688861207E401E4106E069401E41EA8B
:102EC0000020216A491E0843A18A491E40EA0140A8
:102ED0002168C861A068B0F5407F0FD1A06A401E8C
:102EE000E16A491E40EA0121206B401E41EA0011BF
:102EF000A08C401E41EA00402168C8602068D0F8DC
:102F0000C000E16B08432168C1F8C0002046FDF70E
:102F10004DFD0020A0652066012084F85C000020A3
:102F2000FCE60000006400400065004010B59CB065
:102F30000446142117A8FDF786F9542102A8FDF7CD
:102F400082F92149206888423BD1801402904003D5
:102F5000109002A800F040FB08B1FDF71BFD00BF78
:102F60001A48806D40F00070184988650846806DE9
:102F700000F00070019000BF00BF00BF0846C06CA9
:102F800040F00100C8640846C06C00F001000190E8
:102F900000BF00BF4FF4C0501790022018900020CF
:102FA000199002201A9009201B9017A9C00600F062
:102FB00087F800220121152000F026FA152000F0E4
:102FC0000FFA1CB010BD0000006400400010024069
:102FD00070B58CB005460E46282102A8FDF733F9DE
:102FE00000200090019000241848854201D00CB0C8
:102FF00070BD06F0010000B9F9E76B4602AA402156
:103000002846FFF709FD28B111480068401C104907
:103010000860ECE70F480068401C0E4908600E4944
:10302000029808600598FDF703FD0C49087000241C
:1030300005E01DF804000A490855601CC4B20748A1
:1030400000788442F5DB00BFD1E700007802002061
:10305000E4000020D0000020D4000020D800002090
:10306000D90000207047014691F85C0001280BD17F
:10307000022081F85C000868806920F001000A687D
:103080009061002008667047086E40F004000866F2
:103090000120F8E7704770477047704770477047E6
:1030A0007047000010B5044604480068204020B175
:1030B000024804602046FFF7F3FF10BD14040140EE
:1030C00078B502460B460021CAE001268E401D68F5
:1030D00005EA0604002C73D01D7905F00305012DC7
:1030E00004D01D7905F00305022D13D190684E0020
:1030F0000325B540A8434E00DD68B54028439060E5
:10310000506801258D40A8431D79C5F300158D40F9
:10311000284350601D7905F00305032D09D0D068C0
:103120004E000325B540A8434E009D68B540284396
:10313000D0601D7905F00305022D13D1CE0802F1F0
:10314000200555F826004D07EE0E0F25B540A84383
:103150004E07F60E1D69B5402843CE0802F1200542
:1031600045F8260010684E000325B540A8431D7998
:1031700005F003054E00B540284310605D6805F476
:103180004035002D6BD000BF384D2D6E45F0010548
:10319000364E356635462D6E05F00105009500BFAB
:1031A00000BF4FEAB6358E0855F826008D072E0F62
:1031B0000F25B540A843B2F1904F02D100251AE087
:1031C0004DE02B4DAA4201D1012514E0294DAA4220
:1031D00001D102250FE0284DAA4201D103250AE0C2
:1031E000264DAA4201D1042505E0254DAA4201D170
:1031F000052500E006258E07360FB5402843214DF2
:103200008E0845F82600204D2868A0435D6805F427
:10321000801505B120431C4D28602D1D2868A04352
:103220005D6805F4001505B12043174D2D1D28607C
:10323000154D2D1F2868A0435D6805F4003505B1C4
:103240002043114D2D1F28602D1F2868A0435D6865
:1032500005F4803505B120430B4D083D2860491C1D
:103260001D68CD40002D7FF430AF78BD00100240C6
:103270000004004800080048000C00480010004806
:103280000014004808000140080401400246136988
:103290000B400BB1012000E00020704710B54269DF
:1032A00021EA020302EA010443EA0443836110BDF8
:1032B0000AB1816100E08162704700000148006846
:1032C00070470000E80000200348006803490968CF
:1032D0000844014908607047E8000020F000002021
:1032E00010B50024032000F0CDF80F2000F008F8FE
:1032F00008B1012401E000F051F8204610BD0000A3
:10330000F0B587B004460026002700BF1E48806D38
:1033100040F010001C4988650846806D00F01000E0
:10332000009000BF00BF01A902A800F073FC00F0EC
:1033300099FC06461548B6FBF0F0471E144815499F
:10334000086040F2E7311348C16047600021016125
:10335000816001F0F2F8054695B90E4801F0AEF92A
:1033600005466DB9362000F03BF8102C07D200223C
:103370002146362000F048F80748046000E00125A7
:10338000284607B0F0BD00000010024040420F0088
:1033900000100040C0030020EC00002008B500BF72
:1033A0000E48006E40F001000C4908660846006EA9
:1033B00000F00100009000BF00BF00BF0846806D14
:1033C00040F0805088650846806D00F08050009085
:1033D00000BF00BF00F0F6F808BD0000001002407A
:1033E0000146084600280DDB00BF00BF00F01F03A8
:1033F00001229A4043099B0003F1E023C3F8002116
:1034000000BF00BF00BF70472DE9F05F80460D464A
:10341000164603F035FB074639462A46334601F087
:103420000700C0F1070ABAF1040F02D94FF0040AED
:1034300001E0C0F1070AD14600F1040ABAF1070F12
:1034400002D24FF0000A01E0A0F1030AD4464FF087
:10345000010A0AFA09FAAAF1010A0AEA020A0AFAB0
:103460000CFA4FF0010B0BFA0CFBABF1010B0BEA62
:10347000030B4AEA0B042146404603F009FBBDE872
:10348000F09F000000BF00F00702064B19684FF6DE
:10349000FF031940044B0B4343EA0221014B19601F
:1034A00000BF70470CED00E00000FA0502468ABB41
:1034B0004148006800F4C060B0F5806F2BD13E48F1
:1034C0008030006820F480703B4BC3F880001846C1
:1034D000006820F4C06040F400701860374800684D
:1034E00032235843364BB0FBF3F0411C00E0491E39
:1034F0003148406900F48060B0F5806F01D1002947
:10350000F5D12D48406900F48060B0F5806F51D14D
:103510000320704708E028488030006820F480705D
:10352000254BC3F8800045E0B2F5007F3AD1224830
:10353000006800F4C060B0F5806F2AD11E4880306A
:10354000006840F480701C4BC3F880001846006887
:1035500020F4C06040F400701860184800683223FE
:103560005843174BB0FBF3F0411C00E0491E1248D2
:10357000406900F48060B0F5806F01D10029F5D179
:103580000D48406900F48060B0F5806F12D10320CF
:10359000BFE709488030006840F48070064BC3F8EC
:1035A000800007E00448006820F4C06040F48060B8
:1035B000014B18600020ACE700700040F4000020D0
:1035C00040420F000348806840F480400149886011
:1035D00070470000007000402DE9F84304460027C2
:1035E000B846206800F40020B0F5002F73D1B9462A
:1035F000FD48806D00F0805078B900BFFA48806DBA
:1036000040F08050F84988650846806D00F0805091
:10361000009000BF00BF4FF00109F448006840F47B
:103620008070F2490860FFF749FE064606E0FFF7A2
:1036300045FE801B022801D9032705E0EB480068FE
:1036400000F480700028F2D000BF002F46D1E64879
:103650009030006800F44075CDB1206DA84216D0BE
:10366000E1489030006820F44075DF48D0F89000C1
:1036700040F48030DC49C1F890000846D0F8900052
:1036800020F48030C1F890000846C0F8905005F052
:103690000100A0B1FFF712FE064608E0FFF70EFE9C
:1036A000801B41F28831884201D9032706E0CE48C9
:1036B0009030006800F002000028EFD000BF5FB932
:1036C000C9489030006820F44070216D0843C64915
:1036D000C1F8900003E00CE0B84600E0B846B9F14C
:1036E000010F05D1C048806D20F08050BE4988652B
:1036F00000BF207800F0010048B1BB488830006866
:1037000020F0030061680843B749C1F888002078B9
:1037100000F00200022809D1B3488830006820F088
:103720000C00A1680843B049C1F88800207800F077
:103730000400042809D1AC488830006820F030002B
:10374000E1680843A849C1F88800207800F0080023
:10375000082809D1A4488830006820F0C0002169F9
:103760000843A149C1F88800207800F01000102813
:1037700009D19D488830006820F440706169084391
:103780009949C1F88800207800F02000202809D14C
:1037900095488830006820F44060A1690843924948
:1037A000C1F88800207800F04000402809D18E48F8
:1037B0008830006820F44050E16908438A49C1F824
:1037C0008800207800F08000802809D18648883061
:1037D000006820F44040216A08438349C1F888000A
:1037E000208800F48070B0F5807F09D17E48883051
:1037F000006820F44030616A08437B49C1F88800C2
:10380000206800F40030B0F5003F09D176489C30C4
:10381000006820F00300A16A08437349C1F89C00C6
:10382000208800F40070B0F5007F09D16E48883020
:10383000006820F44020E16A08436B49C1F8880021
:10384000208800F48060B0F5806F13D1664888301E
:10385000006820F44010216B0843634988310860F8
:10386000206BB0F5801F05D15F48C06840F4801020
:103870005D49C860208800F40060B0F5006F13D186
:1038800059488830006820F44000616B084356496D
:1038900088310860606BB0F5800F05D15248C06870
:1038A00040F480105049C860208800F48050B0F582
:1038B000805F13D14C488830006820F04070A16BC5
:1038C0000843494988310860A06BB0F1807F05D179
:1038D0004548C06840F480104349C860208800F41F
:1038E0000050B0F5005F13D13F488830006820F0E9
:1038F0004060E16B08433C4988310860E06BB0F1FF
:10390000006F05D13848C06840F480103649C8605F
:10391000208800F48040B0F5804F13D132488830C1
:10392000006820F04060216C08432F49883108600E
:10393000206CB0F1006F05D12B48C06840F48010B6
:103940002949C860208800F40040B0F5004F13D129
:1039500025488830006820F04050616C08432249B7
:1039600088310860606CB0F1805F05D11E48C06886
:1039700040F480301C49C860206800F48030B0F505
:10398000803F13D118488830006820F04040A16C77
:103990000843154988310860A06CB0F1804F05D10B
:1039A0001148C06840F480300F49C860206800F4B6
:1039B0008020B0F5802F13D10B489C30006820F494
:1039C0004010E16C084308499C310860E06CB0F598
:1039D000001F05D10448C06840F480100249C86047
:1039E0004046BDE8F883000000100240007000402F
:1039F0002DE9F04104460D464FF0000814B90120AE
:103A0000BDE8F0817D48006800F00F00A8420ED2AA
:103A10007A48006820F00F0028437849086008467B
:103A2000006800F00F00A84201D00120E8E72078EC
:103A300000F00100002864D06068032823D170489A
:103A4000006800F0007008B90120D9E702F0E4F83E
:103A500006466C48864237D96948806800F0F00015
:103A600030B1207800F0020002282DD1A06858BBA8
:103A70006348806820F0F00040F080006049886072
:103A80004FF0800820E06068022806D15C4800689A
:103A900000F4003040B90120B2E75948006800F452
:103AA000806008B90120ABE700F0EEF80646554803
:103AB000864209D95248806820F0F00040F080002A
:103AC0004F4988604FF080084D48806820F003001F
:103AD000616808434A498860FFF7F0FB074608E041
:103AE000FFF7ECFBC01B41F28831884201D903206B
:103AF00086E74348806800F00C006168B0EB810FF6
:103B0000EED1207800F00200022820D1207800F0C9
:103B10000400042805D13A48806840F4E060384940
:103B20008860207800F00800082807D134488068B1
:103B300020F4605040F4E06031498860304880688B
:103B400020F0F000A16808432D49886008E0B8F132
:103B5000800F05D12A48806820F0F000284988604D
:103B60002648006800F00F00A84219D923480068D1
:103B700020F00F00284321490860FFF79FFB07460C
:103B800008E0FFF79BFBC01B41F28831884201D956
:103B9000032035E71948006800F00F00A842F0D173
:103BA000207800F00400042807D11548806820F42C
:103BB000E060E168084312498860207800F008005E
:103BC000082808D10E48806820F46050216940EA36
:103BD000C1000B49886000F057F809498968C1F3B2
:103BE0000311094A515C01F01F01C84007490860F0
:103BF00007480068FFF784FB02E70000002002404E
:103C00000010024000B4C404C06E0008F40000209C
:103C1000EC0000200F2202600D4A926802F00302BD
:103C200042600B4A926802F0F0028260084A926891
:103C300002F4E062C260064A926802F46052D2085E
:103C40000261044A126802F00F020A607047000025
:103C50000010024000200240014800687047000048
:103C6000F400002000B5FFF7F7FF05498968C1F3AC
:103C70000221044A515C01F01F01C84000BD000050
:103C800000100240D06E000870B5224DAD6805F0FE
:103C90000C05042D01D120483AE01E4DAD6805F019
:103CA0000C05082D01D11D4832E01A4DAD6805F014
:103CB0000C050C2D2BD1174DED6805F00304154DA7
:103CC000ED68C5F303156A1C022C0CD0032C09D136
:103CD000124DB5FBF2F50F4EF668C6F3062605FB4E
:103CE00006F10AE000BF0C4DB5FBF2F5094EF6688F
:103CF000C6F3062605FB06F100BF00BF054DED68C3
:103D0000C5F341656D1C6B00B1FBF3F000E00020D2
:103D100070BD0000001002400024F40000127A0080
:103D20002DE9F843044614B90120BDE8F883207852
:103D300000F00100002865D0FC48806800F00C0706
:103D4000FA48C06800F003060C2F01D1032E01D001
:103D5000082F0AD1F548006800F40030002851D03F
:103D6000606800284ED10120DFE700BF6068B0F531
:103D7000803F06D1ED48006840F48030EB49086090
:103D80001AE06068B0F5A02F0BD1E848006840F455
:103D90008020E64908600846006840F480300860EA
:103DA0000AE0E248006820F48030E04908600846F4
:103DB000006820F48020086000BF606888B1FFF7C9
:103DC0007DFA054606E0FFF779FA401B642801D921
:103DD0000320AAE7D548006800F400300028F2D09C
:103DE00010E0FFF76BFA054606E0FFF767FA401BA5
:103DF000642801D9032098E7CC48006800F400301B
:103E00000028F2D1207800F00200022860D1C748D3
:103E1000806800F00C07C548C06800F003060C2F4E
:103E200001D1022E01D0042F18D1C048006800F43F
:103E3000806018B1E06808B9012076E7BB484068A7
:103E400020F0FE40217C40EA0160B8494860B84853
:103E50000068FFF755FA18B3012066E7E06800B381
:103E6000B248006840F48070B0490860FFF726FA55
:103E7000054606E0FFF722FA401B022801D903207D
:103E800053E7AA48006800F480600028F2D0A748F1
:103E9000406820F0FE40217C40EA0160A349486070
:103EA00016E0A248006820F48070A0490860FFF77F
:103EB00005FA054606E0FFF701FA401B022801D982
:103EC000032032E79948006800F480600028F2D1AE
:103ED000207800F00800082836D16069D0B19348F6
:103EE0009430006840F001009049C1F89400FFF759
:103EF000E5F9054606E0FFF7E1F9401B022801D984
:103F0000032012E789489430006800F0020000287E
:103F1000F1D019E085489430006820F00100834911
:103F2000C1F89400FFF7CAF9054606E0FFF7C6F9A5
:103F3000401B022801D90320F7E67C489430006832
:103F400000F002000028F1D1207800F004000428DD
:103F500072D14FF000087548806D012121EA107080
:103F600078B100BF7148806D40F080506F4988651E
:103F70000846806D00F08050009000BF00BF4FF0F9
:103F800001086C48006800F48070B0B969480068A6
:103F900040F4807067490860FFF790F9054606E035
:103FA000FFF78CF9401B022801D90320BDE66148C8
:103FB000006800F480700028F2D000BFA0680128DB
:103FC00008D15A489030006840F001005749C1F8C4
:103FD000900021E0A06805280FD154489030006877
:103FE00040F004005149C1F890000846D0F8900014
:103FF00040F00100C1F890000EE04C48903000689D
:1040000020F001004949C1F890000846D0F890001E
:1040100020F00400C1F8900000BFA068A8B1FFF72D
:104020004DF9054609E0FFF749F9401B41F2883197
:10403000884202D9032078E625E03C4890300068A9
:1040400000F002000028EED013E0FFF737F9054634
:1040500008E0FFF733F9401B41F28831884201D96B
:10406000032062E631489030006800F0020000282A
:10407000EFD1B8F1010F05D12C48806D20F08050B0
:104080002A49886500BF207800F02000202836D11A
:10409000A069D0B125489830006840F0010023495C
:1040A000C1F89800FFF70AF9054606E0FFF706F9A0
:1040B000401B022801D9032037E61C4898300068CD
:1040C00000F002000028F1D019E01848983000688C
:1040D00020F001001549C1F89800FFF7EFF80546F8
:1040E00006E0FFF7EBF8401B022801D903201CE68D
:1040F0000E489830006800F002000028F1D1E06915
:10410000002860D00948806800F00C000C287AD0A4
:10411000E069022858D10548006820F08070034902
:104120000860FFF7CBF805460DE0000000100240E4
:10413000EC00002000700040FFF7C0F8401B022890
:1041400001D90320F1E54A48006800F0007000281A
:10415000F2D1D4E90810401E41EA0011A06A41EAF8
:104160000021208E0122C2EB500041EA4051342050
:10417000005DC2EB500041EA40612C20005D41EA45
:10418000C0603B49C9683B4A114008433849C86090
:104190000846006840F0807008600846C06840F03B
:1041A0008070C860FFF78AF8054606E0FFF786F8DA
:1041B000401B022801D90320B7E52D48006800F014
:1041C00000700028F2D051E02948006820F080708B
:1041D00027490860FFF772F8054606E0FFF76EF81A
:1041E000401B022801D903209FE52148006800F008
:1041F00000700028F2D11E48C0681F4908401C49C1
:10420000C86033E0FFE7E069012800D18DE5184878
:10421000C66806F00301206A814225D106F0F0014C
:10422000606A401EB1EB001F1ED106F4FE41A06A79
:10423000B1EB002F18D106F078412C20005DB1EBD6
:10424000C06F11D106F4C001208E0122C2EB5000D4
:10425000B1EB405F08D106F0C0613420005DC2EBD5
:104260005000B1EB406F01D001205EE500205CE51D
:10427000001002400C809F01FCFFEEFE704770476B
:104280007047000010B50346002200BF93F83C00C1
:10429000012801D1022010BD012083F83C0000BF9D
:1042A00022F0FF00CC6840EA040222F440708C68DF
:1042B00040EA040222F480604C6840EA040222F4DE
:1042C00000600C6840EA040222F480500C6940EA65
:1042D000040222F400504C6940EA040222F48040B7
:1042E0000C6B40EA040222F470200C8B40EA04427A
:1042F00022F08050CC6940EA0402144C1868A042B5
:1043000007D0134C1868A04203D0124C1868A04282
:1043100013D122F470000C8D40EA045222F0807018
:104320000C6A40EA040222F000704C6A40EA04027F
:1043300022F00050CC6A40EA04021868426400BFD0
:10434000002083F83C0000BF00BFA4E7002C014020
:104350000034014000500140704770477047000032
:1043600030B502460B4600BF92F83C00012801D14F
:10437000022030BD012082F83C0000BF022082F8FC
:104380003D001068416810688468234D1068A84299
:1043900007D0224D1068A84203D0214D1068A842D2
:1043A00003D121F47001586801431E480140186888
:1043B000014310684160184D1068A8421BD0106876
:1043C000B0F1804F17D0184D1068A84213D0174D88
:1043D0001068A8420FD0164D1068A8420BD00F4DA0
:1043E0001068A84207D0134D1068A84203D00C4DA6
:1043F0001068A84205D124F080049868044310682E
:104400008460012082F83D0000BF002082F83C005B
:1044100000BF00BFADE70000002C014000340140A8
:10442000005001408FFFFFFD0004004000080040E5
:10443000000C00400040014070B504460D4615B91F
:1044400094F844000BE0042D02D14520005D06E005
:10445000082D02D14620005D01E04720005D0128C3
:1044600001D0012070BD1DB9022084F844000EE087
:10447000042D03D102214520015508E0082D03D168
:1044800002214620015502E0022147200155042265
:104490002946206802F087F82068406C40F400400C
:1044A000216848641C49206888421BD02068B0F10C
:1044B000804F17D019492068884213D018492068C6
:1044C00088420FD01749206888420BD016492068CF
:1044D000884207D015492068884203D014492068D3
:1044E000884210D120688068124900EA0106062E31
:1044F0000FD0B6F5803F0CD02068006840F0010076
:104500002168086005E02068006840F0010021682B
:1045100008600020A6E70000002C014000040040D5
:1045200000080040000C0040003401400040014001
:104530000050014007000100704710B504460CB957
:10454000012010BD94F83D0028B9002084F83C00FB
:10455000204600F029F8022084F83D00211D206843
:1045600001F098FF012084F8480000BF84F83E0065
:1045700001213F2001554020015541200155422095
:1045800001554320015500BF00BF012084F84400BD
:1045900045200155462001554720015500BF012007
:1045A00084F83D000020CCE738B504461649206861
:1045B00088420DD100BF1548006E40F400601349D9
:1045C00008660846006E00F40060009000BF19E025
:1045D0000F492068884215D100BF0C48806D40F01B
:1045E00020000A4988650846806D00F02000009090
:1045F00000BF00BF002202213720FEF705FF372051
:10460000FEF7EEFE38BD0000002C01400010024015
:1046100000140040014691F83D00012801D001201E
:104620007047022081F83D001C4B086898421BD05F
:104630000868B0F1804F17D0194B0868984213D022
:10464000184B086898420FD0174B086898420BD057
:10465000164B0868984207D0154B0868984203D05B
:10466000144B0868984210D108688068124B00EA21
:104670000302062A0FD0B2F5803F0CD0086800680C
:1046800040F001000B68186005E00868006840F021
:1046900001000B6818600020C2E70000002C0140F8
:1046A0000004004000080040000C004000340140BD
:1046B000004001400050014007000100014691F810
:1046C0003D00012801D001207047022081F83D0003
:1046D0000868C06840F001000B68D8601C4B08688F
:1046E00098421BD00868B0F1804F17D0194B08686A
:1046F000984213D0184B086898420FD0174B08689F
:1047000098420BD0164B0868984207D0154B0868A2
:10471000984203D0144B0868984210D1086880680A
:10472000124B00EA0302062A0FD0B2F5803F0CD0EC
:104730000868006840F001000B68186005E0086830
:10474000006840F001000B6818600020BCE7000022
:10475000002C01400004004000080040000C004014
:1047600000340140004001400050014007000100BA
:104770002DE9F04104460D46002700BF94F83C00A7
:10478000012802D10220BDE8F081012084F83C001C
:1047900000BF022084F83D00206886684248064039
:1047A00026F47F46206886602868B0F5005F33D025
:1047B00015DC402851D008DC002858D0102857D0EC
:1047C000202856D0302862D154E0502831D06028BB
:1047D00039D0702813D0B0F5805F58D10EE000F0CA
:1047E0000F01002953D10011A0F5803008284ED2C6
:1047F000DFE800F0414243444546474849E0D5E9F7
:1048000002136A68206801F0DFFE2068866846F0BF
:104810007706206886603CE0D5E902136A68206864
:1048200001F0D2FE2068806840F4804021688860F2
:104830002FE0EA686968206802F0E0F850212068FB
:1048400001F0CEFE25E0EA686968206802F0E9F828
:104850006021206801F0C4FE1BE0EA6869682068F6
:1048600002F0CCF84021206801F0BAFE11E000BF50
:1048700000BF00BF00BF00BF00BF00BF00BF00BF40
:1048800000BF00BF2968206801F0AAFE01E00127EF
:1048900000BF00BF012084F83D0000BF002084F865
:1048A0003C0000BF38466EE788FFCEFF2DE9F0419F
:1048B00004460D4614B90120BDE8F08194F83D008E
:1048C00028B9002084F83C00204600F055F802206A
:1048D00084F83D0020688068264908402168886087
:1048E000211D206801F0D6FD2068D0F808802068DE
:1048F00086692068076A286840EA080840F20330A1
:104900008643A969A86840EA0120064340F60C40A6
:1049100086434FF2F0008643E969E86840EA0120E7
:10492000064328690001296A40EA0130064327F05E
:10493000220727F088076969686840EA0110074381
:104940002068C0F80880206886612068076201201E
:1049500084F8480084F83E0001213F2001550120E1
:1049600084F8440045200155012084F83D000020D2
:10497000A2E70000F8BFFEFF10B586B00446142180
:1049800001A8FBF760FC17492068884228D100BFC6
:104990001548806D40F00200134988650846806D17
:1049A00000F00200009000BF00BF00BF0846C06CCE
:1049B00040F00100C8640846C06C00F0010000909F
:1049C00000BF00BFC0200190022002900020039091
:1049D00004900220059001A94FF09040FEF770FB73
:1049E00006B010BD00040040001002402DE9F04365
:1049F00004460D4694F83E603F20075D94F84480DD
:104A0000452010F804906DB9012E02D1B8F1010FC4
:104A100002D00120BDE8F083022084F83E0084F833
:104A2000440025E0042D0CD1012F02D1B9F1010F72
:104A300001D00120EEE702213F200155452001551C
:104A400016E0012E07D1012F05D1B8F1010F02D1D7
:104A5000B9F1010F01D00120DCE7022084F83E000B
:104A600002213F200155022084F8440045200155D1
:104A700015B1042D0CD105E001220021206801F0C0
:104A800081FD10E001220421206801F07BFD0AE095
:104A900001220021206801F075FD01220421206817
:104AA00001F070FD00BF00BF2068006840F0010009
:104AB000216808600020ADE7704770B504462068A3
:104AC000C6682068056905F00200022819D106F0C1
:104AD0000200022815D1401F2168086101202077BB
:104AE0002068806900F0030018B12046FFF7E4FF5A
:104AF00005E0204600F04CF9204600F03AFA00208C
:104B0000207705F00400042819D106F004000428D9
:104B100015D1C04321680861022020772068806990
:104B200000F4407018B12046FFF7C6FF05E02046AC
:104B300000F02EF9204600F01CFA0020207705F046
:104B40000800082819D106F00800082815D1C0432C
:104B500021680861042020772068C06900F0030004
:104B600018B12046FFF7A8FF05E0204600F010F935
:104B7000204600F0FEF90020207705F010001028F4
:104B800019D106F01000102815D1C0432168086122
:104B9000082020772068C06900F4407018B12046D2
:104BA000FFF78AFF05E0204600F0F2F8204600F00B
:104BB000E0F90020207705F0010048B106F001007F
:104BC00030B16FF0010021680861204600F088FADA
:104BD00005F08000802804D005F40050B0F5005F97
:104BE0000AD106F08000802806D16FF402502168B7
:104BF00008612046FFF743FB05F48070B0F5807F25
:104C00000AD106F08000802806D16FF480702168F8
:104C100008612046FFF732FB05F04000402809D12B
:104C200006F04000402805D1C043216808612046B5
:104C300000F07EFA05F02000202809D106F02000BF
:104C4000202805D1C043216808612046FFF718FBE2
:104C500005F48010B0F5801F0BD106F48010B0F57C
:104C6000801F06D16FF48010216808612046FFF78D
:104C700074FB05F40010B0F5001F0BD106F4001012
:104C8000B0F5001F06D16FF40010216808612046BE
:104C9000FFF762FB05F48000B0F5800F0BD106F43E
:104CA0008000B0F5800F06D16FF4800021680861A4
:104CB0002046FFF753FB05F40000B0F5000F0BD1C1
:104CC00006F40000B0F5000F06D16FF40000216873
:104CD00008612046FFF730FC70BD000010B586B0BB
:104CE0000446142101A8FBF7AEFA26492068884241
:104CF00045D100BF2448C06C40F002002249C8647E
:104D00000846C06C00F00200009000BF00BF00BF6A
:104D10000846C06C40F00100C8640846C06C00F052
:104D20000100009000BF00BF4FF4C040019002207E
:104D300002900020039004900620059001A91348DA
:104D4000FEF7BEF94FF400400190022002900020CF
:104D5000039004900420059001A90C48FEF7B0F9D7
:104D60004FF4E06001900220029000200390049034
:104D70000620059001A94FF09040FEF7A1F906B07A
:104D800010BD0000002C014000100240000400484B
:104D900070472DE9F04104460D461646002700BF36
:104DA00094F83C00012802D10220BDE8F0810120E6
:104DB00084F83C0000BF0C2E51D005DC4EB1042E0F
:104DC0001ED0082E7AD133E0102E60D0142EF9D1E7
:104DD00075E02946206801F00FFC2068806940F0EA
:104DE0000800216888612068806920F0040021683B
:104DF000886120688069296908432168886178E0B2
:104E00002946206801F056FC2068806940F4006063
:104E1000216888612068806920F480602168886149
:104E200020688069296940EA01202168886160E082
:104E30002946206801F0A2FC2068C06940F0080003
:104E40002168C8612068C06920F004002168C86139
:104E50002068C069296908432168C86149E029467A
:104E6000206801F0EDFC2068C06940F40060216812
:104E7000C8612068C06920F480602168C86120682A
:104E8000C069296940EA01202168C86131E02946EA
:104E9000206801F039FD2068006D40F008002168AD
:104EA00008652068006D20F004002168086520680E
:104EB000006D29690843216808651AE017E0294652
:104EC000206801F05DFD2068006D40F400602168FD
:104ED00008652068006D20F48060216808652068FE
:104EE000006D296940EA01202168086501E0012779
:104EF00000BF00BF00BF002084F83C0000BF384660
:104F000053E710B504460CB9012010BD94F83D00DC
:104F100028B9002084F83C00204600F029F802203F
:104F200084F83D00211D206801F0B4FA012084F8C6
:104F3000480000BF84F83E0001213F200155402079
:104F4000015541200155422001554320015500BF24
:104F500000BF012084F8440045200155462001553A
:104F60004720015500BF012084F83D000020CCE718
:104F70007047704770B504460D4615B994F83E0069
:104F800015E0042D02D13F20005D10E0082D02D174
:104F90004020005D0BE00C2D02D14120005D06E0B9
:104FA000102D02D14220005D01E04320005D012868
:104FB00001D0012070BD1DB9022084F83E001AE026
:104FC000042D03D102213F20015514E0082D03D107
:104FD0000221402001550EE00C2D03D10221412079
:104FE000015508E0102D03D102214220015502E0B5
:104FF00002214320015501222946206801F0C2FA0E
:105000002D492068884213D02C49206888420FD04F
:105010002B49206888420BD02A492068884207D053
:1050200029492068884203D028492068884201D154
:10503000012000E0002028B12068406C40F40040CE
:10504000216848641C49206888421BD02068B0F160
:10505000804F17D01E492068884213D01D49206810
:1050600088420FD01C49206888420BD01349206821
:10507000884207D012492068884203D0134920682B
:10508000884210D120688068144900EA0106062E83
:105090000FD0B6F5803F0CD02068006840F00100CA
:1050A0002168086005E02068006840F00100216880
:1050B000086000207EE70000002C01400034014021
:1050C00000400140004401400048014000500140C0
:1050D0000004004000080040000C004007000100F0
:1050E00010B504460D492068884201D1FEF7ECF85E
:1050F0000B492068884210D1FBF7BAFB0948B0F988
:105100000E0000EE100AB8EEC00A074880ED000A53
:105110000448C0890549A1F8500010BD00100040A6
:1051200000140040340500204C0000200C04002036
:10513000704700BFFEE770B52DED068B04460D46A7
:10514000F0EE408AB0EE608AB0EE419AF0EE619ADD
:10515000B0EE42AAF0EE62AAC4ED008A84ED018AA4
:1051600084ED029AC5ED019A85ED00AAB0EE6A0AB7
:1051700000F046FCF0EE40AA2046FBF703FAB0EE42
:105180006A0A204600F006FD29462046FBF712FA7F
:10519000B0EE6A0A204600F069F8204600F0C0FF31
:1051A000BDEC068B70BD000010B5044604B910BDFF
:1051B00018212046FBF747F8B7EE000A84ED000AF5
:1051C000B0EE040A84ED010A4FF496702081962017
:1051D00060814FF4C870A0811420A0739FED040A71
:1051E00084ED040A9FED030A84ED050A00BFDEE7A3
:1051F0000020CB45CDCC4C3E70B504460D4604B1E5
:1052000005B970BD54212046FBF71DF81822294628
:105210002046FAF7FFFF002084F8380000BFF0E7CF
:1052200010B5044604B910BD202104F11800FBF7A5
:105230000AF8012004F8380F60700020A070E070B8
:10524000A080A071A0609FED080A84ED030A9FED85
:10525000060A84ED040A20759FED030A84ED060A10
:10526000383C00BFDFE700000000000010B52DED66
:10527000028B82B00446B0EE408A9FED190A8DED94
:10528000010A9FED170A8DED000ADFED160A68EEA0
:10529000200AB0EE600A694601A8FBF71DF894EDFC
:1052A000070ADDED000A20EE200AD4ED080A9DED84
:1052B000011A00EEC10A84ED090A94ED070ADDED3A
:1052C000010A20EE200AD4ED080A9DED001A00EE36
:1052D000810A84ED0A0A02B0BDEC028B10BD000009
:1052E00000000000E02E65428168024A1140491C1E
:1052F00081607047C0FFFF7F0146886800F0E07062
:1053000070470146886800F460407047014688682D
:1053100000F01F0070470146886800F01F007047CA
:10532000024602F1600000EB8103186800F0F840CB
:105330007047024602F1600000EB8103186800F03C
:10534000F84070470146C86800F000707047014699
:105350008868C0F3C000704701468868C0F3C00089
:10536000704700008168034A114041F008018160E4
:1053700070470000C0FFFF7F01468868C0F340000F
:1053800070470146886800F0010070470146886850
:1053900000F00100704701468868C0F30070704754
:1053A00001468868C0F38000704701468868C0F3F2
:1053B000800070470146C86800F4406008B90120C9
:1053C00070470020FCE700008168024A1140091D77
:1053D00081607047C0FFFF7F70B500F11404C1F316
:1053E000406504EB85031C68C1F304560725B540EE
:1053F000AC43C1F3045502FA05F52C431C6070BDA3
:1054000070B500F11404C1F3406504EB85031C681A
:10541000C1F304560725B540AC43C1F3045502FA65
:1054200005F52C431C6070BD826822F0E0720A43CF
:1054300082607047826822F0E0720A43826070479F
:1054400010B500F1600404EB81031C6824F00044F3
:1054500014431C6010BD10B500F1600404EB81031F
:105460001C6824F0004414431C6010BD426922F003
:1054700000420A4342617047426922F000420A43F7
:1054800042617047B0EE401A10B9B0EE410A704761
:10549000F5EEC00AF1EE10FA04D29FED150AF0EE17
:1054A000400A0AE0B7EE000AF4EEC00AF1EE10FA84
:1054B00003DDB7EE000AF0EE400A017931B980ED64
:1054C000001A01210171B0EE410AE0E7B7EE000ACF
:1054D00030EE600A90ED002A20EE020AF0EE401A4B
:1054E00040EE811AC0ED001AB0EE610ACFE700006D
:1054F0000000000000B59BB00020189019901A9091
:10550000202110A8FAF79FFE3C2101A8FAF79BFE84
:105510004FF0A0403D4908604FF440304860002102
:105520003A488160C16001610121416104218161CA
:1055300000210177012141770162002180F82410C8
:10554000C162016380F83810C16380F84010FCF735
:1055500027FE08B1FBF71EFA0020189018A92B4867
:10556000FCF7B6F808B1FBF715FA294810900620A9
:105570001190002012907F2013900420149000209E
:10558000159010A92148FCF77FF908B1FBF702FA42
:105590002048019009200290012003907F20049070
:1055A00004200590002006900320099000208DF82B
:1055B00028008DF829008DF82A0084200B90802087
:1055C0000C9000208DF8340001A91048FBF792FAE6
:1055D00008B1FBF7DFF91048019040F20F1002907C
:1055E00001A90A48FBF786FA08B1FBF7D3F90B4883
:1055F000019040F21520029001A90448FBF77AFAC5
:1056000008B1FBF7C7F91BB000BD00000C02002079
:105610001000C0108000501D000180210002B02544
:1056200000B587B029482A49086000204860002159
:1056300027488160C1600121017400214174817497
:1056400007214161042181612221C161052101629B
:10565000012141628162C162016341630021816372
:10566000C163FDF757FB08B1FBF794F9182101A8B6
:10567000FAF7E9FD0020019002900220039001203A
:10568000049000200590069001A91148FDF765F9E6
:1056900008B1FBF77FF90120034602221146009072
:1056A0000B48FDF78CF908B1FBF774F900220949A2
:1056B0000748FDF7C1F808B1FBF76CF90448FDF79E
:1056C000D2FC08B1FBF766F907B000BD00640040EA
:1056D0007802002001000E0000B587B0142102A856
:1056E000FAF7B1FD00BF4148C06C40F010003F49DF
:1056F000C8640846C06C00F01000019000BF00BFF5
:1057000000BF0846C06C40F00400C8640846C06C86
:1057100000F00400019000BF00BF00BF0846C06C4D
:1057200040F02000C8640846C06C00F020000190E2
:1057300000BF00BF00BF0846C06C40F00100C86455
:105740000846C06C00F00100019000BF00BF00BF20
:105750000846C06C40F00200C8640846C06C00F007
:105760000200019000BF00BF00224FF4005120480A
:10577000FDF79EFD002203211E48FDF799FD102034
:1057800002904FF4881003900120049002A9194858
:10579000FDF796FC4FF4005002900120039000208A
:1057A0000490059002A91248FDF78AFC4FF4E040EE
:1057B0000290002003900120049002A90D48FDF7FB
:1057C0007FFC0320029001200390049000200590AC
:1057D00002A90848FDF774FC002202210A20FDF707
:1057E00013FE0A20FDF7FCFD07B000BD00100240CB
:1057F000000800480010004800B59BB0002017903A
:10580000189019901A901490159016901C210DA8BC
:10581000FAF719FD34216846FAF715FD4048414969
:1058200008600020486060213E48816041F65731A1
:10583000C160002101610121416100218161FEF708
:105840007CFE08B1FBF7A6F84FF48050179017A91B
:105850003448FEF78DFF08B1FBF79CF83148FFF79D
:1058600050FB08B1FBF796F87020149000201590BB
:10587000169014A92B48FEF773FD08B1FBF78AF8C0
:1058800060200D9000200E900F90109011901290BB
:10589000139000220DA92348FFF77BFA08B1FBF70C
:1058A00079F804220DA91F48FFF773FA08B1FBF736
:1058B00071F808220DA91B48FFF76BFA08B1FBF736
:1058C00069F870200D9041F656300E900C220DA90B
:1058D0001448FFF75EFA08B1FBF75CF8002000906F
:1058E0000190029032200390002004904FF4005069
:1058F000059000200690079008904FF000700990E6
:1059000000200A900B900C9069460648FEF7BAFCFE
:1059100008B1FBF73FF80348FFF7E0F91BB000BD03
:10592000002C0140DC02002000B58DB0242104A829
:10593000FAF789FC002001900290039019481A4957
:1059400008600020486000211748816040F69F7180
:10595000C160002101618161032004900020059055
:105960000120069000200790052008900020099053
:1059700001200A9000200B9005200C9004A90A48F1
:10598000FEF794FF08B1FBF705F8002001900390A3
:1059900001A90548FEF7E4FC08B1FAF7FBFF0DB0DA
:1059A00000BD000000040040280300200EB50020C8
:1059B0000090019002900E480E4908601320486044
:1059C00000210C48816041F65831C160002181619D
:1059D000FEF7B3FD08B1FAF7DDFF0020009002905A
:1059E00069460448FEF7BCFC08B1FAF7D3FF0EBDC8
:1059F000001400407403002000BFFEE700BFFEE774
:105A00009FED0F1AF0EE410A05E09FED0D1A30EE02
:105A1000411AB0EE410A9FED0A1AB4EEC10AF1EE46
:105A200010FAF2DA05E09FED061A30EE011AB0EE38
:105A3000410AB5EEC00AF1EE10FAF4D37047000047
:105A4000DB0FC94010B52DED048B82B00446F0EE9B
:105A5000408AB0EE608A9FED490A8DED010A9FED04
:105A6000470A8DED000A9FED450AB0EE409AD4ED4D
:105A7000080A9FED431A60EE810AB0EE600A69469B
:105A800001A8FAF729FCB1EE680ADDED000A20EE64
:105A9000200ADDED010A08EE600A84ED050A68EED1
:105AA000A80A48EE080AB0EE600A01F005F8B0EE68
:105AB000409A94ED050ADFED330A79EE200A80EE74
:105AC000201A84ED051A94ED050ADFED2F0AB4EED5
:105AD000E00AF1EE10FA02DD9FED2B0A01E094EDF1
